:0A00F7003F065B4F666D7D077F6FCB
:0A00C100F583E493F5A07F507E0064
:1000CB00E4FDFCC3ED9FEC9E5015E4FBFA0BBB006B
:0F00DB00010ABA03F8BBE8F50DBD00010C80E483
:0100EA0022F3
:10000300AFB0EF64FB704E75903FF50AF50BE4F566
:1000130008F50974F72509F582740035081200C143
:100023000509E50970020508D39409E50894004021
:10003300E274F8250BF5827400350AF583E493F531
:1000430090050BE50B7002050AD39401E50A9400B1
:1000530040BC75A03FAFB0EF64F770A475905B75BB
:10006300A03F7F50FE1200CB750A00750B02C3E55B
:100073000B9401E50A9400408774F6250BF582740E
:1000830000350AF583E493F590E4F508F509C374A4
:10009300099509FFE49508FE74F72FF58274003E75
:1000A3001200C10509E50970020508D39409E508A2
:0E00B300940040DAE50B150B70B4150A80B00E
:030000000200EB10
:0C00EB00787FE4F6D8FD75810B0200035D
:00000001FF
