:0A00A9003F065B4F666D7D077F6F19
:10000300E4F508C3E508940274809480503BE4F55A
:1000130009C3E509940A748094805029E4F50AD34E
:10002300E50A947874809480501775A0FFC2A0E508
:1000330008120075D2A0C2A1E509120075050A8055
:10004300DE050980CC050880BA750B78C3E50B94EF
:10005300017480948040A975A0FFC2A09000ABE416
:10006300120078D2A0C2A19000A9E4120078150B67
:0200730080DA31
:0A0075009000A993F5907F047E002F
:10007F00D3EF9400EE940040147D6E7C00ED1D7064
:0D008F00011CED4C70F7EF1F70E61E80E3C2
:01009C002241
:0300000002009D5E
:0C009D00787FE4F6D8FD75810B020003AB
:00000001FF
