:10013600100800FE00FD00FB00F700EF00DF00BF27
:02014600007F38
:0D01090025E02408F808E6F5997F147E0033
:10011600E4FDFCC3ED9FEC9E5015E4FBFA0BBB001F
:0F012600010ABA03F8BBE8F50DBD00010C80E437
:0101350022A7
:10008F00759850E4F587758920758DF4758BF4D2CA
:10009F008E20B2087599AA3099FDC29920B30875C0
:1000AF0099553099FDC29920B420E4F518F519E55A
:1000BF00191201090519E51970020518C39408E50D
:1000CF0018940040EA3099FDC29920B524E4F51840
:1000DF00F519C3740795191201090519E51970026D
:1000EF000518C39408E518940040E73099FDC299AC
:0A00FF00227599FF3099FDC2992285
:03000000020003F8
:0C000300787FE4F6D8FD75811902004AF0
:10000F0002008FE493A3F8E493A34003F68001F278
:10001F0008DFF48029E493A3F85407240CC8C333F2
:10002F00C4540F4420C8834004F456800146F6DFC1
:10003F00E4800B0102040810204080900136E47E1A
:10004F00019360BCA3FF543F30E509541FFEE493B6
:10005F00A360010ECF54C025E060A840B8E493A37D
:10006F00FAE493A3F8E493A3C8C582C8CAC583CAA8
:10007F00F0A3C8C582C8CAC583CADFE9DEE780BE60
:0101480000B6
:00000001FF
