:0A00DA003F065B4F666D7D077F6FE8
:0C00A4003508F583E493F5907F2C7E0175
:1000B000D3EF9400EE940040147D6E7C00ED1D7033
:0D00C000011CED4C70F7EF1F70E61E80E391
:0100CD002210
:0C000600D2A8D2AAD288D28AD2AF80FE43
:0300030002005E9A
:10005E00C0E0C083C082C0D075D000C004C005C04F
:10006E0006C00775080075090074DA2509F5827453
:10007E00001200A40509E50970020508D39409E5EC
:10008E0008940040E4D007D006D005D004D0D0D0DC
:06009E0082D083D0E032A5
:03001300020016D2
:10001600C0E0C083C082C0D075D000C004C005C097
:1000260006C00775080075090A74D92509F5827492
:10003600001200A4E509150970021508D3E5099414
:1000460000E508940050E2D007D006D005D004D0D1
:08005600D0D082D083D0E0324B
:030000000200CE2D
:0C00CE00787FE4F6D8FD75810902000679
:00000001FF
