:1001930000FE00FD00FB00F700EF00DF00BF007F63
:0D01660025E0240CF808E6F5907F147E00DB
:10017300E4FDFCC3ED9FEC9E5015E4FBFA0BBB00C2
:0F018300010ABA03F8BBE8F50DBD00010C80E4DA
:01019200224A
:1000F900780C7C007D007BFF7A0179937E007F106C
:100109001200D3AFB0EF64FB70037590AAAFB0EFE4
:1001190064F77003759055AFB0EF64EF701AF50886
:10012900F509E5091201660509E50970020508C323
:100139009408E508940040EAAFB0EF64DF701DF55C
:1001490008F509C3740795091201660509E50970DF
:0C015900020508C39408E508940040E784
:010165002277
:030000000201A357
:0C01A300787FE4F6D8FD75811B0200F99E
:10000300E709F608DFFA8046E709F208DFFA803EDF
:1000130088828C83E709F0A3DFFA8032E309F608CC
:10002300DFFA8078E309F208DFFA807088828C8334
:10003300E309F0A3DFFA806489828A83E0A3F608E8
:10004300DFFA805889828A83E0A3F208DFFA804CC2
:1000530080D280FA80C680D4806980F28033801099
:1000630080A680EA809A80A880DA80E280CA803302
:1000730089828A83ECFAE493A3C8C582C8CCC5837A
:10008300CCF0A3C8C582C8CCC583CCDFE9DEE7804A
:100093000D89828A83E493A3F608DFF9ECFAA9F0C9
:1000A300EDFB2289828A83ECFAE0A3C8C582C8CC1F
:1000B300C583CCF0A3C8C582C8CCC583CCDFEADE38
:1000C300E880DB89828A83E493A3F208DFF980CC9A
:1000D30088F0EF60010E4E60C388F0ED2402B40493
:1000E3000050B9F582EB2402B4040050AF2323453A
:0600F3008223900053730C
:00000001FF
